:020000040000FA
:0600000058EF01F01200B0
:0A0006000100E40200008A0000007F
:0400100004000000E8
:0C00140083A612001200BDD8839A8398C6
:10002000A0D0B9D8839A83889CD0B5D8030EE12696
:10003000DF6A010EDB6A020EDB6AB2D8EE50ED1009
:1000400002E1DF6A08D0ACD8010EEE1804E1ED50F1
:1000500002E1400EDF6EFB0EDB50DF260F0EDF14D9
:10006000E76E010EE7CFDBFF780EDF14E76E020EBE
:10007000E7CFDBFFDB380F0BE76E020EE7CFDBFFCE
:10008000DB86DBCFE6FFC9DFE552010EDBCFE6FF03
:10009000C4DFE55274D812E072D8F00BE8380F0BC9
:1000A000E66EBFDFE5526BD80F0BE66EBADFE552A6
:1000B000FD0EDB2AFE0EEEE3DB2AECD7030EE15C3D
:1000C00002E2E16AE552E16EE552E7CFD9FF1200A4
:1000D00062D8110EE126D9CFE9FFDACFEAFF390E57
:1000E000EE6E300EEE6E200EEE6E660EEE6E6F0E43
:1000F000EE6E720EEE6E200EEE6E740EEE6E680EEA
:10010000EE6E650EEE6E200EEE6E620EEE6E6F0EF1
:10011000EE6E790EEE6E730EEE6EEE6AEE6A956A14
:10012000836A838E020EE66E31EC01F0E552020E18
:100130002ED8020E2CD8080E40D80E0E3ED8060E31
:1001400026D8010EE66EE66A020EE66EE66AD9CFA2
:10015000E6FFDACFE6FF69DF046E060EE15E0450CB
:10016000FFD7F00E8316FE0EDB50831220D8838C4F
:100170001ED8839C1CD8E552E7CFD9FF1200FD0E94
:10018000DBCFE9FFFE0EDBCFEAFFEF501200E66E99
:1001900044DFE5521200D9CFE6FFE1CFD9FF1200CC
:1001A000D950F90FE96EFF0EDA20EA6E1200020E46
:1001B000E66E66EC01F0E5521200E9DFE66A2DDF3B
:0401C000E5521200F2
:0C01C400060EF66E000EF76E000EF86ED0
:1001D00000010900F550856F0900F550866F03E1B5
:1001E000856701D03DD00900F550806F0900F550BA
:1001F000816F0900F550826F09000900F550E96E22
:100200000900F550EA6E090009000900F550836FF6
:100210000900F550846F09000900F6CF87F0F7CF89
:1002200088F0F8CF89F080C0F6FF81C0F7FF82C068
:10023000F8FF0001835302E1845307E00900F55001
:10024000EE6E8307F8E28407F9D787C0F6FF88C00F
:10025000F7FF89C0F8FF00018507000E865BBFD756
:0202600012008A
:0E026200FF0EE350036EEF0E01D0F30EE76EB9
:10027000E72E38EF01F00C0E026EE76AE72E3EEF34
:1002800001F0022E3DEF01F0032E36EF01F01200D7
:10029000000EF36E00EE00F0060E01D81200EA60C8
:1002A00002D0EE6AFCD7F350E9601200EE6AFCD788
:1002B00015EE00F025EE00F0F86A019CE2EC00F08B
:0C02C00071EC01F068EC00F0FBD71200BC
:0402CC00FF0EE350EE
:1002D000E84E1200000000D000D000D0E82EFAD77F
:0202E00012000A
:0202E200120008
:0402E4000000000016
:020000040030CA
:0100010022DC
:0100020006F7
:010003000EEE
:0100050000FA
:010006008178
:010008000FE8
:01000900C036
:01000A000FE6
:01000B00E014
:01000C000FE4
:01000D0040B2
:00000001FF
