:020000040000FA
:06000000A1EF02F0120066
:020006001200E6
:0400080087EF00F08E
:04000C0001005E058C
:0A0010000000800000003200000034
:06001A0047D93ED926E0A3
:100020003CD9AD6E3AD90001801BACA2FED7FD0EC3
:10003000DB2AFE0E01E3DB2ADF2A010E01E3DB2AC5
:10004000FD0EDBCF12F0FE0EDBCF13F0B90E12184F
:10005000E5E1000E1318E2E1D950FD0FE96EDACFA9
:10006000EAFFB20EEE6E000EED6ED8D7DECF12F0C4
:10007000DDCF13F012C0F3FF13C0F4FF020EE15CFA
:1000800002E2E16AE552E16EE552E7CFD9FF1200E4
:10009000AB8EAC98AC84190EAF6E12009D9AAB98E3
:1000A0009D88AC8A9F8812009D98AC9A9D8AAB88E7
:1000B0009F8A1200D08EF28EF28C1200F6D80001C8
:1000C000B96BBA6BBB6BBC6BDE6ADD6ADECF12F05C
:1000D000DDCF13F0D890135004E6070E125C000E2B
:1000E00013580EE2DECFE9FFDDCFEAFFB20EE926BC
:1000F000000EEA22EF6ADF2A010EE8E3DB2AE6D7E8
:10010000C7DFD2DFD7DF936A0F0E816EFFD7DACF5A
:10011000E4FFE2CFDAFFE9CFE4FFEACFE4FFF6CF76
:10012000E4FFF7CFE4FFF5CFE4FFF3CFE4FFF4CF34
:10013000E4FFFACFE4FF00EE00F0100EE80403E362
:10014000EECFE4FFFBD700EE12F0020EE80403E36B
:10015000EECFE4FFFBD7E652D9CFE6FFE1CFD9FFE0
:10016000070EE1269EAA16D0AE50DF6E0D0EDF5CA4
:1001700004E1A4D8EF6A92DF0DD0A0D8DFCFEFFF63
:10018000B92B000EBA23070EB91904E1BA5102E1E6
:10019000B96BBA6B9EA84DD0050EDB6A060EDB6A02
:1001A000870EE66E000E74D80001806BB20E00015F
:1001B000BB25106E000EBC21116E10C0E6FF68D882
:1001C000050EF3CFDBFF060EF4CFDBFFD950010F96
:1001D000E66E000EDA20E66E00018051E66EE66AF9
:1001E0006CEC01F0E552E552E552E552800EE66E08
:1001F000000E6CD8930EE66E000E4AD8D950010F4F
:10020000E66E000EDA2062D8050EDB500001BB2737
:10021000060EDB50BC23070E0D6E0E6ABBC008F045
:10022000BCC009F055EC02F004C0BBF005C0BCF046
:100230003BDF811C816E070EE15C02E2E16AE55260
:10024000E16EE552E7CFD9FFE55200EE13F0020E62
:10025000E80403E3E5CFEDFFFBD700EE0FF0100E4F
:10026000E80403E3E5CFEDFFFBD7E5CFFAFFE5CFE9
:10027000F4FFE5CFF3FFE5CFF5FFE5CFF7FFE5CFDF
:10028000F6FFE5CFEAFFE5CFE9FFE5CFDAFF1100A2
:10029000E66EC3DEE552E5521200FD0EDBCFE9FF4C
:1002A000FE0EDBCFEAFFEF501200D9CFE6FFE1CF21
:1002B000D9FF020EE126DE6ADD6A1200B20E0001ED
:1002C000B925E96E000EBA21EA6E1200E1DF830E55
:0802D000E66E000E48EF01F09C
:0802D800D9CFE6FFDACFE6FF03
:1002E000FA0EE3CFD9FFFB0EE3CFDAFFFD0EE352A8
:1002F00009E72D0EDE6EFC0EE31EE32AFD0ED8B4D8
:10030000E306E31EE652E652E652FD0EE124E76EF6
:10031000FF0EE220E46EE652F70EE3CFE6FFF70EA3
:10032000E3CFE6FFDCEC01F0F90EE124E96EFF0E0D
:10033000E220EA6ECCEC01F00AE1C9EC01F009E13F
:10034000CCEC01F008E1C9EC01F007E108D0D7ECF2
:1003500001F0D2EC01F0D7EC01F0D2EC01F0D7ECD7
:1003600001F0DE6AF90EE126FF0EE222FF0EE3CF76
:10037000DAFFE552FF0EE3CFD9FFE552FC0EE12490
:10038000E96EFF0EE220EA6EEECFF3FFEFCFF4FF4F
:100390001200EF380F0B1200EF500F0B02E1EE527C
:1003A000D8841200EF380F0B300FDE6E1200EE50C3
:1003B0000F0B300FDE6E1200FC0EE3CFE9FFFD0ED7
:1003C000E3CFEAFF100EE66EEE6AEE6AEF6AD890AF
:1003D000FD0EE336FE0EE336ED36ED36EF36FF0E5C
:1003E000E30609E0FDEC01F0EE52FDEC01F0EE5207
:1003F000FDEC01F0EDD7E56E1200030EEF24E8B638
:0C040000EF6E300EEF24E8BEEF6E000C33
:04040C000C0EF66E6E
:10041000000EF76E000EF86E00010900F550C26F75
:100420000900F550C36F03E1C26701D03DD0090058
:10043000F550BD6F0900F550BE6F0900F550BF6F54
:1004400009000900F550E96E0900F550EA6E09004F
:1004500009000900F550C06F0900F550C16F09008F
:100460000900F6CFC4F0F7CFC5F0F8CFC6F0BDC095
:10047000F6FFBEC0F7FFBFC0F8FF0001C05302E1A6
:10048000C15307E00900F550EE6EC007F8E2C1075E
:10049000F9D7C4C0F6FFC5C0F7FFC6C0F8FF00011A
:0A04A000C207000EC35BBFD71200B5
:0604AA00006A0EAE5EEFD9
:1004B00002F00D6C0E1EE86A0E22001E09AE66EFF9
:1004C00002F0086C091EE86A0922001E7BEC02F0AB
:1004D00009BE76EF02F000AE000C086C091EE86A57
:1004E0000922046C051EE86A0522000C00BE6DEFAF
:0604F00002F00188FF0C80
:0A04F600056A046A100EE76ED89044
:1005000008360936043605360D50045C0E50055881
:1005100005E30D50045E0E50055A082AE72EF0D769
:020520001200C7
:0E052200000EF36E00EE00F0060E01D812007F
:10053000EA6002D0EE6AFCD7F350E9601200EE6A7E
:02054000FCD7E6
:0E05420015EE00F025EE00F0F86A019C06ECC4
:0E05500002F003EC00F05EEC00F0FBD71200AE
:02055E0000009B
:10056000000D0A000052656365697665643A2000F3
:100570000054686520646563696D616C20666F7204
:1005800020746865204C5243207761733A20000044
:020000040030CA
:0100010022DC
:0100020006F7
:010003000EEE
:0100050000FA
:010006008178
:010008000FE8
:01000900C036
:01000A000FE6
:01000B00E014
:01000C000FE4
:01000D0040B2
:00000001FF
