:020000040000FA
:06000000B6EF03F0120050
:020006001200E6
:0400080060EF01F0B4
:04000C0001009E074A
:0A0010000000A80000000E00000030
:06001A0079DA83DA0AE046
:1000200081DAAD6EACA2FED7FD0EDB2AFE0EF6E342
:10003000DB2AF4D79DD2AB8EAC98AC84190EAF6E90
:1000400012009D98AC9A9D8AAB889F8A12009D9A57
:10005000AB989D98AC8A1200D08EF28EF28C120072
:1000600056DA839A83982CD252DA839A838828D2DC
:10007000956A836A838E020EE66E8FEC03F0E5527A
:10008000020E58DA6CDA080E36DA0E0E34DA060E84
:10009000E66EAFEF02F03BDA030EE126DF6A010EF7
:1000A000DB6A020EDB6AE66A5ADA010E43DA8FEC8B
:1000B00003F0E5520001B251B31102E1DF6A07D04B
:1000C000010EB21904E1B35102E1400EDF6EB451EA
:1000D000DF260F0EDF14E76E010EE7CFDBFF780E91
:1000E000DF14E76E020EE7CFDBFFDB380F0BE76EA6
:1000F000020EE7CFDBFFDB86DBCFE6FF30DA010E57
:10010000DBCFE6FF2CDA0001AA6BAB6BF9D9EF501D
:1001100035E0F6D9EF50F00BE8380F0BE66EA4DFB0
:10012000E552850E0001AA25E96E000EAB21EA6EAC
:10013000EF500F0BE66E98DFE5520001AA2B000E80
:10014000AB23B42BB523010EB21907E1B35105E17E
:10015000100EB41902E1B55111E0B251B311D6E15C
:10016000100EB419D3E1B551D1E10C0EC4D9010E72
:100170000001B26FB36BB46BB56BC8D7030EE15C13
:1001800002E2E16AE552E16EF3D1C1D9780EE126CF
:10019000D9CFE9FF83D9720EEE6E6F0EEE6E770E39
:1001A000BBD96F0EEE6E720ED1D9310E9CD91F0FD6
:1001B000E96E74D9630EEE6E6F0EEE6E6C0EEE6E1F
:1001C000750EEE6E6D0EEE6E6E0EA6D92D0EBED9AC
:1001D000310EEE6E350E87D9410FE96ECDD9610E25
:1001E000B5D96D0EEE6E650EEE6E730EEE6EEE6EA2
:1001F000610EEE6E670EEE6E650EA8D9740EEE6E91
:100200006F0EA4D9640EEE6E690EEE6E730EEE6E76
:10021000700EEE6E6C0EEE6E610EEE6E790E96D96D
:100220006F0EEE6E6E0E92D94C0EEE6E430EEE6EAB
:10023000440E8CD9280EEE6E4D0EEE6E410EEE6E13
:10024000580E84D9330EEE6E320E80D9430EEE6E08
:10025000480EEE6E410EEE6E520EEE6E530E43D908
:10026000750FE96EDACFEAFF0D0EEE6E0A0EEE6E36
:10027000EE6AFEDEE0DEF0DE936A0F0E816EE7DEF0
:10028000D9CFE6FFDACFE6FFC8DEE552E552D9DE88
:100290000001AC51AD11FCE05DD9D9501F0F1BD945
:1002A000D0DE0001AE51AF11FCE054D9D950410F5E
:1002B00012D9C7DE0001B051B111FCE04BD9DFD734
:1002C000DACFE4FFE2CFDAFFE9CFE4FFEACFE4FFE1
:1002D000F6CFE4FFF7CFE4FFF5CFE4FFF3CFE4FF81
:1002E000F4CFE4FFFACFE4FF00EE00F0020EE804E2
:1002F00003E3EECFE4FFFBD700EE04F0000EE804CA
:1003000003E3EECFE4FFFBD7E65201D9E6529EAA03
:100310009BD0AE50DF6E0D0EDF5C54E10001AC519E
:10032000AD111AE1800E0001A625E96E000EA7218D
:10033000EA6EEF6A800EE66E000EE66ECBEC02F01F
:10034000E552E552F3CFB2F0F4CFB3F0010E000165
:10035000AC6FAD6BB06B34D0AE51AF1113E1EFD8D1
:10036000EF6A820EE66E000EE66ECBEC02F0E5520E
:10037000E552F3CFB4F0F4CFB5F0010E0001AE6F4B
:10038000AF6B62D0BDD8EF6AB2C0E6FFB3C0E6FF84
:10039000B4C0E6FFB5C0E6FF7EDEE552E552E552A9
:1003A000E5520001AC6BAD6BAE6BAF6B0001A66BA1
:1003B000A76B0001A86BA96BAA6BAB6B010EB06FAA
:1003C000B16B42D044DEDF50AD6EACA2FED739DE59
:1003D0000001AC51AD1116E1020E0001A7AF02D031
:1003E000D89003D0A65D000EA7592EE2800EA62558
:1003F000E96E000EA721EA6EDFCFEFFFA62B000EFD
:10040000A72322D0AE51AF1110E1030EA9AF02D045
:10041000D89003D0A85D000EA95916E290D8DFCF7E
:10042000EFFFA82B000EA9230FD0210EABAF02D0F7
:10043000D89003D0AA5D000EAB5906E261D8DFCF99
:10044000EFFFAA2B000EAB23811C816EE552E55213
:10045000E7CFD9FFE55200EE03F0000EE80403E316
:10046000E5CFEDFFFBD700EE01F0020EE80403E359
:10047000E5CFEDFFFBD7E5CFFAFFE5CFF4FFE5CF02
:10048000F3FFE5CFF5FFE5CFF7FFE5CFF6FFE5CFCB
:10049000EAFFE5CFE9FFE5CFDAFF11006DD8730E73
:1004A000EE6E740EEE6E610EEE6E720EEE6E740EE9
:1004B000EE6E690EEE6E6E0EEE6E670EA6EF02F039
:1004C000F00E8316FE0EDB5083124CD8838C4AD874
:1004D000839C48D84DD0E66E000EDA20E66E9DDD96
:1004E000E552E5521200EE6E290EEE6E3A0E2ED84F
:1004F000EE6AD9501200E66E32D8E66AAFEF02F02B
:10050000850EAA25E96E000EAB21EA6E1200D9CF46
:10051000E6FFE1CFD9FF120019D8280EEE6E300E9B
:10052000A6EF02F0FD0EDBCFE9FFFE0EDBCFEAFF08
:10053000EF501200E66E13D8020EE66E1200820E25
:10054000A825E96E000EA921EA6E1200EE6E200EBB
:10055000EE6E12007CDDD950750F6BEF02F080DD7E
:10056000E5521200020EE66EC4EC03F0E5521200F2
:10057000E552E7CFD9FF1200DACFEAFF530EEE6E55
:10058000650EEE6E6C0EEE6E650EEE6E630EEE6E2A
:06059000740EA6EF02F05C
:0A059600FF0EE3CFEAFFE552FF0E6F
:1005A000E3CFE9FFE552E66AE66AD9CFE6FFDACFA4
:1005B000E6FFFC0EE124D96EFF0EE220DA6EE66A59
:1005C000E66AE66A200EEF5C06E0090EEF5C03E0E7
:1005D000EF6603D03FD0EE50F5D72D0EEF5C03E170
:1005E000FF0EE32A03D02B0EEF5C01E1EE502F0E3D
:1005F000EF6424D03A0EEF6021D0D890F90EE336A4
:10060000FA0EE336FD0EDECFE3FFFE0EDDCFE3FF95
:10061000D890F90EE336FA0EE336D890F90EE336A9
:10062000FA0EE336FD0EE350DE26FE0EE350DD2229
:10063000300EEE5CDE26000EDD22D9D7FF0EE3CFB2
:10064000E8FFE85207E0F90EE31EE32AFA0ED8B4F9
:10065000E306E31EE552E552E552FF0EE3CFDAFF73
:10066000E552FF0EE3CFD9FFE552E1CFE9FFE2CF3C
:10067000EAFFED52ED52EECFF3FFEFCFF4FF1200A1
:100680000C0EF66E000EF76E000EF86E00010900FB
:10069000F550BB6F0900F550BC6F03E1BB6701D09B
:1006A0003DD00900F550B66F0900F550B76F09004D
:1006B000F550B86F09000900F550E96E0900F550D2
:1006C000EA6E090009000900F550B96F0900F550FC
:1006D000BA6F09000900F6CFBDF0F7CFBEF0F8CF32
:1006E000BFF0B6C0F6FFB7C0F7FFB8C0F8FF000113
:1006F000B95302E1BA5307E00900F550EE6EB907AD
:10070000F8E2BA07F9D7BDC0F6FFBEC0F7FFBFC019
:0E071000F8FF0001BB07000EBC5BBFD7120054
:02071E00FF0ECC
:10072000E350036EEF0E01D0F30EE76EE72E96EF67
:1007300003F00C0E026EE76AE72E9CEF03F0022E28
:0C0740009BEF03F0032E94EF03F0120077
:04074C00000EF36E3A
:1007500000EE00F0060E01D81200EA6002D0EE6A48
:0C076000FCD7F350E9601200EE6AFCD7F1
:04076C0015EE00F096
:1007700025EE00F0F86A019C40EC03F003EC00F079
:08078000C5EC00F0FBD71200EC
:08078800FF0EE350E84E1200E1
:0E079000000000D000D000D0E82EFAD71200F2
:02079E00000059
:0C07A0000000000000000000000000004D
:020000040030CA
:0100010022DC
:0100020006F7
:010003000EEE
:0100050000FA
:010006008178
:010008000FE8
:01000900C036
:01000A000FE6
:01000B00E014
:01000C000FE4
:01000D0040B2
:00000001FF
