:020000040000FA
:06000000B8EF00F0120051
:020006000000F8
:0600080088EF00F0120079
:02000E00060EDC
:10001000F66E000EF76E000EF86E00010900F55046
:10002000856F0900F550866F03E1856701D03DD0EB
:100030000900F550806F0900F550816F0900F550F7
:10004000826F09000900F550E96E0900F550EA6E6B
:10005000090009000900F550836F0900F550846F0D
:1000600009000900F6CF87F0F7CF88F0F8CF89F0C4
:1000700080C0F6FF81C0F7FF82C0F8FF0001835304
:1000800002E1845307E00900F550EE6E8307F8E2C1
:100090008407F9D787C0F6FF88C0F7FF89C0F8FF4B
:0C00A00000018507000E865BBFD7120030
:0400AC00D08EF28E72
:1000B000F28C9E861200C698C78CC79EC682C68ADE
:1000C00012009488949A9496948C12009390939230
:1000D0001200D9CFE6FFE1CFD9FFE652E7DFF1DF2B
:1000E000F5DFE9DF8190010EE66E91EC00F0E5525C
:1000F0008180C950DF6E9E96F00EC96EC7A0FED7F4
:10010000C950DF6E9E96DF50C96EC7B0EBD7FDD7E2
:10011000DACFE4FFE652811C816EE552E5CFDAFFCB
:020120001100CC
:0E012200FF0EE350036EEF0E01D0F30EE76EFA
:10013000E72E98EF00F00C0E026EE76AE72E9EEFB6
:1001400000F0022E9DEF00F0032E96EF00F012005B
:10015000000EF36E00EE00F0060E01D81200EA6009
:1001600002D0EE6AFCD7F350E9601200EE6AFCD7C9
:1001700015EE00F025EE00F0F86A019C07EC00F0A7
:0C018000C6EC00F069EC00F0FBD71200A8
:02018C0012005F
:020000040030CA
:0100010022DC
:0100020006F7
:010003000EEE
:0100050000FA
:010006008178
:010008000FE8
:01000900C036
:01000A000FE6
:01000B00E014
:01000C000FE4
:01000D0040B2
:00000001FF
