:020000040000FA
:06000000C6EF00F0120043
:020006001200E6
:0600080059EF00F01200A8
:02000E000100EF
:0C001000BE0100008A0000000200000099
:04001C00D08EF28E02
:10002000F28C1200C698C78CC79EC682C68A120080
:100030009488949A94961200939093921200460E8C
:10004000BE6E100EBF6EB10ECD6E0B0EBD6E9D84DA
:100050009E941200D9CFE6FFE1CFD9FF030EE1262F
:10006000DDDFEDDFE5DFE8DFDDDF00018A518B1149
:10007000FCE081900A0EE66ED4EC00F0E55281803F
:100080008192C968C7A0FED7C950E66ED950010F4A
:10009000E96EDACFEAFFE552E750EE6EED6A818253
:1000A000010EDB50C96EC7A0FED700018A6B8B6BB7
:1000B000DCD7DACFE4FFE6529EA405D0010E0001A2
:0E00C0008A6F8B6B9E94E552E5CFDAFF11003C
:0200CE000E0E14
:1000D000F66E000EF76E000EF86E00010900F55086
:1000E000856F0900F550866F03E1856701D03DD02B
:1000F0000900F550806F0900F550816F0900F55037
:10010000826F09000900F550E96E0900F550EA6EAA
:10011000090009000900F550836F0900F550846F4C
:1001200009000900F6CF87F0F7CF88F0F8CF89F003
:1001300080C0F6FF81C0F7FF82C0F8FF0001835343
:1001400002E1845307E00900F550EE6E8307F8E200
:100150008407F9D787C0F6FF88C0F7FF89C0F8FF8A
:0C01600000018507000E865BBFD712006F
:04016C00000EF36E20
:1001700000EE00F0060E01D81200EA6002D0EE6A2E
:0C018000FCD7F350E9601200EE6AFCD7D7
:04018C0015EE00F07C
:1001900025EE00F0F86A019C67EC00F003EC00F03B
:0801A0002AEC00F0FBD712006D
:0801A800FF0EE350E84E1200C7
:0E01B000000000D000D000D0E82EFAD71200D8
:0201BE0000003F
:020000040030CA
:0100010022DC
:0100020006F7
:010003000EEE
:0100050000FA
:010006008178
:010008000FE8
:01000900C036
:01000A000FE6
:01000B00E014
:01000C000FE4
:01000D0040B2
:00000001FF
