:020000040000FA
:06000000B4EF00F0120055
:020006000000F8
:08000800D9CFE6FFE1CFD9FFDB
:1000100044D80AE042D8AD6EACA2FED7FD0EDB2A72
:10002000FE0EF6E3DB2AF4D7E552E7CFD9FF120044
:10003000AB8E190EAF6EAC98AC84AC8A1200D9CFDF
:10004000E6FFE1CFD9FF0F0EE126D9CFE9FFDACFE6
:10005000EAFF480EEE6E650EEE6E6C0EEE6EEE6E04
:100060006F0EEE6E200EEE6E4D0EEE6E720EEE6E9A
:10007000200EEE6E4A0EEE6E650EEE6E660EEE6EA3
:10008000EE6E210EEE6EEE6AD3DFD9CFE6FFDACF49
:10009000E6FFBADFE552E552F8D7FD0EDBCFE9FF08
:0A00A000FE0EDBCFEAFFEF50120066
:0600AA00060EF66E000ECA
:1000B000F76E000EF86E00010900F550856F09001B
:1000C000F550866F03E1856701D03DD00900F550FA
:1000D000806F0900F550816F0900F550826F0900AB
:1000E0000900F550E96E0900F550EA6E09000900B3
:1000F0000900F550836F0900F550846F090009006D
:10010000F6CF87F0F7CF88F0F8CF89F080C0F6FF00
:1001100081C0F7FF82C0F8FF0001835302E18453DE
:1001200007E00900F550EE6E8307F8E28407F9D77F
:1001300087C0F6FF88C0F7FF89C0F8FF0001850778
:08014000000E865BBFD7120020
:08014800000EF36E00EE00F062
:10015000060E01D81200EA6002D0EE6AFCD7F35016
:08016000E9601200EE6AFCD711
:0801680015EE00F025EE00F099
:10017000F86A019C55EC00F0C2EC00F01FEC00F0B6
:04018000FBD7120097
:02018400120067
:00000001FF
